{
  "_format": "hh-sol-artifact-1",
  "contractName": "CrowdFund",
  "sourceName": "contracts/CrowdFund.sol",
  "abi": [
    {
      "inputs": [
        {
          "internalType": "uint256",
          "name": "",
          "type": "uint256"
        }
      ],
      "name": "campaigns",
      "outputs": [
        {
          "internalType": "address",
          "name": "owner",
          "type": "address"
        },
        {
          "internalType": "string",
          "name": "title",
          "type": "string"
        },
        {
          "internalType": "string",
          "name": "description",
          "type": "string"
        },
        {
          "internalType": "uint256",
          "name": "target",
          "type": "uint256"
        },
        {
          "internalType": "uint256",
          "name": "deadline",
          "type": "uint256"
        },
        {
          "internalType": "uint256",
          "name": "amountRaised",
          "type": "uint256"
        }
      ],
      "stateMutability": "view",
      "type": "function"
    },
    {
      "inputs": [
        {
          "internalType": "address",
          "name": "_owner",
          "type": "address"
        },
        {
          "internalType": "string",
          "name": "_title",
          "type": "string"
        },
        {
          "internalType": "string",
          "name": "_description",
          "type": "string"
        },
        {
          "internalType": "uint256",
          "name": "_target",
          "type": "uint256"
        },
        {
          "internalType": "uint256",
          "name": "_deadline",
          "type": "uint256"
        }
      ],
      "name": "createCampaign",
      "outputs": [
        {
          "internalType": "uint256",
          "name": "",
          "type": "uint256"
        }
      ],
      "stateMutability": "nonpayable",
      "type": "function"
    },
    {
      "inputs": [
        {
          "internalType": "uint256",
          "name": "_id",
          "type": "uint256"
        }
      ],
      "name": "donateToCampaign",
      "outputs": [],
      "stateMutability": "payable",
      "type": "function"
    },
    {
      "inputs": [],
      "name": "getCampaigns",
      "outputs": [
        {
          "components": [
            {
              "internalType": "address",
              "name": "owner",
              "type": "address"
            },
            {
              "internalType": "string",
              "name": "title",
              "type": "string"
            },
            {
              "internalType": "string",
              "name": "description",
              "type": "string"
            },
            {
              "internalType": "uint256",
              "name": "target",
              "type": "uint256"
            },
            {
              "internalType": "uint256",
              "name": "deadline",
              "type": "uint256"
            },
            {
              "internalType": "uint256",
              "name": "amountRaised",
              "type": "uint256"
            },
            {
              "internalType": "address[]",
              "name": "donators",
              "type": "address[]"
            },
            {
              "internalType": "uint256[]",
              "name": "donations",
              "type": "uint256[]"
            }
          ],
          "internalType": "struct CrowdFund.Campaign[]",
          "name": "",
          "type": "tuple[]"
        }
      ],
      "stateMutability": "view",
      "type": "function"
    },
    {
      "inputs": [
        {
          "internalType": "uint256",
          "name": "_id",
          "type": "uint256"
        }
      ],
      "name": "getDonator",
      "outputs": [
        {
          "internalType": "address[]",
          "name": "",
          "type": "address[]"
        },
        {
          "internalType": "uint256[]",
          "name": "",
          "type": "uint256[]"
        }
      ],
      "stateMutability": "view",
      "type": "function"
    },
    {
      "inputs": [],
      "name": "numberOfCampaigns",
      "outputs": [
        {
          "internalType": "uint256",
          "name": "",
          "type": "uint256"
        }
      ],
      "stateMutability": "view",
      "type": "function"
    }
  ],
  "bytecode": "0x60806040526000600155348015601457600080fd5b50611783806100246000396000f3fe6080604052600436106100555760003560e01c8063075843c31461005a57806307ca140d14610097578063141961bc146100c257806342a4fda8146101045780637b66e17f14610120578063a6b036331461015e575b600080fd5b34801561006657600080fd5b50610081600480360381019061007c9190610bfe565b610189565b60405161008e9190610cc0565b60405180910390f35b3480156100a357600080fd5b506100ac61029d565b6040516100b99190610cc0565b60405180910390f35b3480156100ce57600080fd5b506100e960048036038101906100e49190610cdb565b6102a3565b6040516100fb96959493929190610d96565b60405180910390f35b61011e60048036038101906101199190610cdb565b61040f565b005b34801561012c57600080fd5b5061014760048036038101906101429190610cdb565b610572565b604051610155929190610f81565b60405180910390f35b34801561016a57600080fd5b50610173610677565b6040516101809190611267565b60405180910390f35b60008060008060015481526020019081526020016000209050428160040154106101e8576040517f08c379a00000000000000000000000000000000000000000000000000000000081526004016101df906112fb565b60405180910390fd5b868160000160006101000a81548173ffffffffffffffffffffffffffffffffffffffff021916908373ffffffffffffffffffffffffffffffffffffffff1602179055508581600101908161023c9190611527565b508481600201908161024e9190611527565b50838160030181905550828160040181905550600081600501819055506001600081548092919061027e90611628565b9190505550600180546102919190611670565b91505095945050505050565b60015481565b60006020528060005260406000206000915090508060000160009054906101000a900473ffffffffffffffffffffffffffffffffffffffff16908060010180546102ec9061134a565b80601f01602080910402602001604051908101604052809291908181526020018280546103189061134a565b80156103655780601f1061033a57610100808354040283529160200191610365565b820191906000526020600020905b81548152906001019060200180831161034857829003601f168201915b50505050509080600201805461037a9061134a565b80601f01602080910402602001604051908101604052809291908181526020018280546103a69061134a565b80156103f35780601f106103c8576101008083540402835291602001916103f3565b820191906000526020600020905b8154815290600101906020018083116103d657829003601f168201915b5050505050908060030154908060040154908060050154905086565b60003490506000806000848152602001908152602001600020905080600601339080600181540180825580915050600190039060005260206000200160009091909190916101000a81548173ffffffffffffffffffffffffffffffffffffffff021916908373ffffffffffffffffffffffffffffffffffffffff1602179055508060070182908060018154018082558091505060019003906000526020600020016000909190919091505560008160000160009054906101000a900473ffffffffffffffffffffffffffffffffffffffff1673ffffffffffffffffffffffffffffffffffffffff1683604051610504906116d5565b60006040518083038185875af1925050503d8060008114610541576040519150601f19603f3d011682016040523d82523d6000602084013e610546565b606091505b50509050801561056c578282600501600082825461056491906116ea565b925050819055505b50505050565b6060806000806000858152602001908152602001600020905080600601816007018180548060200260200160405190810160405280929190818152602001828054801561061457602002820191906000526020600020905b8160009054906101000a900473ffffffffffffffffffffffffffffffffffffffff1673ffffffffffffffffffffffffffffffffffffffff16815260200190600101908083116105ca575b505050505091508080548060200260200160405190810160405280929190818152602001828054801561066657602002820191906000526020600020905b815481526020019060010190808311610652575b505050505090509250925050915091565b6060600060015467ffffffffffffffff81111561069757610696610a9d565b5b6040519080825280602002602001820160405280156106d057816020015b6106bd6109b5565b8152602001906001900390816106b55790505b50905060005b6001548110156109ad576000806000838152602001908152602001600020905080604051806101000160405290816000820160009054906101000a900473ffffffffffffffffffffffffffffffffffffffff1673ffffffffffffffffffffffffffffffffffffffff1673ffffffffffffffffffffffffffffffffffffffff1681526020016001820180546107699061134a565b80601f01602080910402602001604051908101604052809291908181526020018280546107959061134a565b80156107e25780601f106107b7576101008083540402835291602001916107e2565b820191906000526020600020905b8154815290600101906020018083116107c557829003601f168201915b505050505081526020016002820180546107fb9061134a565b80601f01602080910402602001604051908101604052809291908181526020018280546108279061134a565b80156108745780601f1061084957610100808354040283529160200191610874565b820191906000526020600020905b81548152906001019060200180831161085757829003601f168201915b505050505081526020016003820154815260200160048201548152602001600582015481526020016006820180548060200260200160405190810160405280929190818152602001828054801561092057602002820191906000526020600020905b8160009054906101000a900473ffffffffffffffffffffffffffffffffffffffff1673ffffffffffffffffffffffffffffffffffffffff16815260200190600101908083116108d6575b505050505081526020016007820180548060200260200160405190810160405280929190818152602001828054801561097857602002820191906000526020600020905b815481526020019060010190808311610964575b5050505050815250508383815181106109945761099361171e565b5b60200260200101819052505080806001019150506106d6565b508091505090565b604051806101000160405280600073ffffffffffffffffffffffffffffffffffffffff168152602001606081526020016060815260200160008152602001600081526020016000815260200160608152602001606081525090565b6000604051905090565b600080fd5b600080fd5b600073ffffffffffffffffffffffffffffffffffffffff82169050919050565b6000610a4f82610a24565b9050919050565b610a5f81610a44565b8114610a6a57600080fd5b50565b600081359050610a7c81610a56565b92915050565b600080fd5b600080fd5b6000601f19601f8301169050919050565b7f4e487b7100000000000000000000000000000000000000000000000000000000600052604160045260246000fd5b610ad582610a8c565b810181811067ffffffffffffffff82111715610af457610af3610a9d565b5b80604052505050565b6000610b07610a10565b9050610b138282610acc565b919050565b600067ffffffffffffffff821115610b3357610b32610a9d565b5b610b3c82610a8c565b9050602081019050919050565b82818337600083830152505050565b6000610b6b610b6684610b18565b610afd565b905082815260208101848484011115610b8757610b86610a87565b5b610b92848285610b49565b509392505050565b600082601f830112610baf57610bae610a82565b5b8135610bbf848260208601610b58565b91505092915050565b6000819050919050565b610bdb81610bc8565b8114610be657600080fd5b50565b600081359050610bf881610bd2565b92915050565b600080600080600060a08688031215610c1a57610c19610a1a565b5b6000610c2888828901610a6d565b955050602086013567ffffffffffffffff811115610c4957610c48610a1f565b5b610c5588828901610b9a565b945050604086013567ffffffffffffffff811115610c7657610c75610a1f565b5b610c8288828901610b9a565b9350506060610c9388828901610be9565b9250506080610ca488828901610be9565b9150509295509295909350565b610cba81610bc8565b82525050565b6000602082019050610cd56000830184610cb1565b92915050565b600060208284031215610cf157610cf0610a1a565b5b6000610cff84828501610be9565b91505092915050565b610d1181610a44565b82525050565b600081519050919050565b600082825260208201905092915050565b60005b83811015610d51578082015181840152602081019050610d36565b60008484015250505050565b6000610d6882610d17565b610d728185610d22565b9350610d82818560208601610d33565b610d8b81610a8c565b840191505092915050565b600060c082019050610dab6000830189610d08565b8181036020830152610dbd8188610d5d565b90508181036040830152610dd18187610d5d565b9050610de06060830186610cb1565b610ded6080830185610cb1565b610dfa60a0830184610cb1565b979650505050505050565b600081519050919050565b600082825260208201905092915050565b6000819050602082019050919050565b610e3a81610a44565b82525050565b6000610e4c8383610e31565b60208301905092915050565b6000602082019050919050565b6000610e7082610e05565b610e7a8185610e10565b9350610e8583610e21565b8060005b83811015610eb6578151610e9d8882610e40565b9750610ea883610e58565b925050600181019050610e89565b5085935050505092915050565b600081519050919050565b600082825260208201905092915050565b6000819050602082019050919050565b610ef881610bc8565b82525050565b6000610f0a8383610eef565b60208301905092915050565b6000602082019050919050565b6000610f2e82610ec3565b610f388185610ece565b9350610f4383610edf565b8060005b83811015610f74578151610f5b8882610efe565b9750610f6683610f16565b925050600181019050610f47565b5085935050505092915050565b60006040820190508181036000830152610f9b8185610e65565b90508181036020830152610faf8184610f23565b90509392505050565b600081519050919050565b600082825260208201905092915050565b6000819050602082019050919050565b600082825260208201905092915050565b600061100082610d17565b61100a8185610fe4565b935061101a818560208601610d33565b61102381610a8c565b840191505092915050565b600082825260208201905092915050565b600061104a82610e05565b611054818561102e565b935061105f83610e21565b8060005b838110156110905781516110778882610e40565b975061108283610e58565b925050600181019050611063565b5085935050505092915050565b600082825260208201905092915050565b60006110b982610ec3565b6110c3818561109d565b93506110ce83610edf565b8060005b838110156110ff5781516110e68882610efe565b97506110f183610f16565b9250506001810190506110d2565b5085935050505092915050565b6000610100830160008301516111256000860182610e31565b506020830151848203602086015261113d8282610ff5565b915050604083015184820360408601526111578282610ff5565b915050606083015161116c6060860182610eef565b50608083015161117f6080860182610eef565b5060a083015161119260a0860182610eef565b5060c083015184820360c08601526111aa828261103f565b91505060e083015184820360e08601526111c482826110ae565b9150508091505092915050565b60006111dd838361110c565b905092915050565b6000602082019050919050565b60006111fd82610fb8565b6112078185610fc3565b93508360208202850161121985610fd4565b8060005b85811015611255578484038952815161123685826111d1565b9450611241836111e5565b925060208a0199505060018101905061121d565b50829750879550505050505092915050565b6000602082019050818103600083015261128181846111f2565b905092915050565b7f54686520646561646c696e65206d75737420626520612064617465737320696e60008201527f2074686520667574757265000000000000000000000000000000000000000000602082015250565b60006112e5602b83610d22565b91506112f082611289565b604082019050919050565b60006020820190508181036000830152611314816112d8565b9050919050565b7f4e487b7100000000000000000000000000000000000000000000000000000000600052602260045260246000fd5b6000600282049050600182168061136257607f821691505b6020821081036113755761137461131b565b5b50919050565b60008190508160005260206000209050919050565b60006020601f8301049050919050565b600082821b905092915050565b6000600883026113dd7fffffffffffffffffffffffffffffffffffffffffffffffffffffffffffffffff826113a0565b6113e786836113a0565b95508019841693508086168417925050509392505050565b6000819050919050565b600061142461141f61141a84610bc8565b6113ff565b610bc8565b9050919050565b6000819050919050565b61143e83611409565b61145261144a8261142b565b8484546113ad565b825550505050565b600090565b61146761145a565b611472818484611435565b505050565b5b818110156114965761148b60008261145f565b600181019050611478565b5050565b601f8211156114db576114ac8161137b565b6114b584611390565b810160208510156114c4578190505b6114d86114d085611390565b830182611477565b50505b505050565b600082821c905092915050565b60006114fe600019846008026114e0565b1980831691505092915050565b600061151783836114ed565b9150826002028217905092915050565b61153082610d17565b67ffffffffffffffff81111561154957611548610a9d565b5b611553825461134a565b61155e82828561149a565b600060209050601f831160018114611591576000841561157f578287015190505b611589858261150b565b8655506115f1565b601f19841661159f8661137b565b60005b828110156115c7578489015182556001820191506020850194506020810190506115a2565b868310156115e457848901516115e0601f8916826114ed565b8355505b6001600288020188555050505b505050505050565b7f4e487b7100000000000000000000000000000000000000000000000000000000600052601160045260246000fd5b600061163382610bc8565b91507fffffffffffffffffffffffffffffffffffffffffffffffffffffffffffffffff8203611665576116646115f9565b5b600182019050919050565b600061167b82610bc8565b915061168683610bc8565b925082820390508181111561169e5761169d6115f9565b5b92915050565b600081905092915050565b50565b60006116bf6000836116a4565b91506116ca826116af565b600082019050919050565b60006116e0826116b2565b9150819050919050565b60006116f582610bc8565b915061170083610bc8565b9250828201905080821115611718576117176115f9565b5b92915050565b7f4e487b7100000000000000000000000000000000000000000000000000000000600052603260045260246000fdfea2646970667358221220798d5e433c8e94fd367df37a44c61ac7226b190564dfed3c48d7a9b7aecb602564736f6c634300081c0033",
  "linkReferences": {},
  "deployedLinkReferences": {}
}